:1000000045C0000061C000005FC000005DC000008E
:100010005BC0000059C0000057C0000055C0000080
:1000200053C0000051C000004FC000004DC0000090
:100030004BC0000049C0000047C0000045C00000A0
:10004000AEC0000041C000008BC000003DC00000F9
:100050003BC0000039C0000037C0000035C00000C0
:1000600033C0000031C000002FC000002DC00000D0
:100070002BC0000029C0000027C0000025C00000E0
:1000800023C0000021C000001FC0000011241FBEBB
:10009000CFEFD0E1DEBFCDBF11E0A0E0B1E0ECE4F6
:1000A000F3E100E00BBF02C007900D92A632B1074A
:1000B000D9F722E0A6E2B1E001C01D92AD38B20747
:1000C000E1F76FD50C94A4099BCF2CB53DB5232B3C
:1000D000E1F325E535E545E051E40E94410920E0E2
:1000E00030E048E453E416D7E5D7673881E0780775
:1000F00034F46A3071052CF46AE070E002C066E8FE
:1001000071E0CB01089690938500809384009BBD9D
:100110008ABD68507109709387006093860079BD2D
:1001200068BD0895CF9318BA88E8E9D683E4E7D686
:10013000C1E0C8BB18BA80E9E2D680E0E0D6C8BB0F
:1001400018BA80E2DCD6C8BBCF91089597B1907FF2
:10015000890F87B9369A349BFECF84B195B1089543
:100160001F920F920FB60F9211240BB60F928F931E
:10017000EF93FF93E0914C0281E08E0F80934C024D
:10018000F0E08CB1EA5CFE4F8083FF91EF918F919C
:100190000F900BBE0F900FBE0F901F9018951F92DF
:1001A0000F920FB60F9211240BB60F924F925F92DF
:1001B0006F927F928F929F92AF92BF92CF92DF9277
:1001C000EF92FF922F933F934F935F936F937F93A1
:1001D0008F939F93AF93BF93CF93EF93FF9383E856
:1001E00082BFC1E0C5BB80E0B1DFBC01990F880BC5
:1001F000990B93D760936F02709370028093710292
:100200009093720218BA88EE7AD6C8BB18BA88E6FC
:1002100076D67AD6C82ED12CE12CF12CFE2CED2CE2
:10022000DC2CCC2471D6C82AFE2CED2CDC2CCC2462
:100230006BD6C82AFE2CED2CDC2CCC2465D6C8BB92
:10024000C82AF094E094D094C094C11CD11CE11C45
:10025000F11CC0927B02D0927C02E0927D02F0926F
:100260007E0283E085BB60917B0270917C0280916D
:100270007D0290917E0251D720E030E042EA58E4BE
:10028000B1D69B01AC0146D62BED3FE049E450E4EA
:10029000F8D76093800270938102809382029093DA
:1002A000830290916E0289E2989F812D112482959C
:1002B0008F7024E6829F901911249111C6C060911D
:1002C0002A0170912B0180912C0190912D0120E049
:1002D00030E0A90183D6882344F480912A019091CB
:1002E0002B01A0912C01B0912D0160912A017091F8
:1002F0002B0180912C0190912D0120918002309151
:100300008102409182025091830203D660933602AB
:1003100070933702809338029093390260913602CD
:1003200070913702809138029091390220916602D3
:10033000309167024091680250916902EAD560935A
:100340004D0270934E0280934F0290935002609141
:1003500036027091370280913802909139022091D3
:1003600014013091150140911601509117018090B0
:100370004D0290904E02A0904F02B09050024090DB
:10038000100150901101609012017090130179D703
:100390006B017C01A3019201C501B40172D79B01DD
:1003A000AC01C701B601B6D56093730270937402B5
:1003B000809375029093760260917302709174023B
:1003C00080917502909176022DEE32EE4DEF50E461
:1003D00054D718166CF48DEE92EEADEFB0E4809326
:1003E000730290937402A0937502B09376021BC0BF
:1003F00060917302709174028091750290917602FF
:100400002DEE32EE4DEF50ECE9D5882364F48DEEFD
:1004100092EEADEFB0EC8093730290937402A093D0
:100420007502B09376028091360290913702A091C6
:100430003802B09139028093660290936702A093CC
:100440006802B093690210926E0220916E028DECE8
:10045000289F812D1124869586958695880F982F43
:10046000990F990F890F2813E1C160917302709160
:100470007402809175029091760220912101309151
:1004800022014091230150912401F7D618168CF4D3
:100490008091210190912201A0912301B09124012A
:1004A0008093730290937402A0937502B0937602C6
:1004B00027C08091210190912201A0912301B09148
:1004C0002401209173023091740240917502509181
:1004D0007602BC01CD019058D0D618168CF48091CC
:1004E000210190912201A0912301B0912401B058E3
:1004F0008093730290937402A0937502B093760276
:1005000060918002709181028091820290918302B9
:100510002091840230918502409186025091870299
:10052000F8D42AE037ED43EA5BE35CD560932E0113
:1005300070932F0180933001909331016091730289
:1005400070917402809175029091760220912E0133
:1005500030912F014091300150913101DAD46093F4
:100560007702709378028093790290937A02809058
:10057000770290907802A0907902B0907A02409031
:100580000C0150900D0160900E0170900F01609170
:1005900048027091490280914A0290914B02209149
:1005A00008013091090140910A0150910B0169D66F
:1005B0002AE037ED43EA5BE364D66B017C01A301DB
:1005C0009201C501B4015DD69B01AC01C701B60122
:1005D000A1D460936A0270936B0280936C02909333
:1005E0006D0260917702709178028091790290910A
:1005F0007A02209148023091490240914A0250917A
:100600004B0288D4609348027093490280934A0257
:1006100090934B02609148027091490280914A0286
:1006200090914B0220E030E040EF51E426D61816BE
:100630006CF480E090E0A0EFB1E4809348029093E6
:100640004902A0934A02B0934B021BC0609148023A
:100650007091490280914A0290914B0220E030E073
:1006600040EF51ECBBD4882364F480E090E0A0EF2D
:10067000B1EC8093480290934902A0934A02B09350
:100680004B0260916A0270916B0280916C029091B2
:100690006D022091190130911A0140911B01509176
:1006A0001C01EBD518160CF04DC060916A027091D8
:1006B0006B0280916C0290916D0220911901309132
:1006C0001A0140911B0150911C0140900C01509067
:1006D0000D0160900E0170900F01C0904802D09003
:1006E0004902E0904A02F0904B0213D44B015C01A6
:1006F000A301920160E070E080E89FE373D49B0166
:10070000AC01C501B401BDD59B01AC01C701B60167
:1007100000D4609348027093490280934A029093F8
:100720004B028091190190911A01A0911B01B09187
:100730001C0180936A0290936B02A0936C02B093A9
:100740006D0264C08091190190911A01A0911B0162
:10075000B0911C0120916A0230916B0240916C02B1
:1007600050916D02BC01CD01905887D518160CF040
:100770004DC060916A0270916B0280916C02909101
:100780006D022091190130911A0140911B01509185
:100790001C0140900C0150900D0160900E01709072
:1007A0000F01C0904802D0904902E0904A02F090B8
:1007B0004B02B0D34B015C01A301920160E070E0F9
:1007C00080E89FE30FD49B01AC01C501B40159D56A
:1007D0009B01AC01C701B6019CD3609348027093A2
:1007E000490280934A0290934B02809119019091A3
:1007F0001A01A0911B01B0911C01B05880936A02AC
:1008000090936B02A0936C02B0936D028091800272
:1008100090918102A0918202B09183028093840220
:1008200090938502A0938602B093870280916A021A
:1008300090916B02A0916C02B0916D0280931D01AA
:1008400090931E01A0931F01B093200160911D01A0
:1008500070911E0180911F0190912001209119013A
:1008600030911A0140911B0150911C0106D51816B8
:100870008CF48091190190911A01A0911B01B09103
:100880001C0180931D0190931E01A0931F01B09342
:10089000200127C08091190190911A01A0911B019C
:1008A000B0911C0120911D0130911E0140911F014A
:1008B00050912001BC01CD019058DFD418168CF462
:1008C0008091190190911A01A0911B01B0911C0116
:1008D000B05880931D0190931E01A0931F01B09307
:1008E000200160916F02709170028091710290916D
:1008F000720220E030E040E85AE3C3D420E030E068
:1009000040EA50E4BED420E030E040E250E401D3BD
:1009100020E030E040E251E4B4D4DC01CB01B05837
:100920008093440290934502A0934602B0934702FD
:1009300060911D0170911E0180911F019091200115
:100940002091440230914502409146025091470265
:10095000E0D260933A0270933B0280933C02909302
:100960003D0280903A0290903B02A0903C02B090F1
:100970003D02409004015090050160900601709086
:100980000701609188027091890280918A0290919A
:100990008B022091000130910101409102015091A0
:1009A00003016FD42FE632E143E05AE36AD46B01CE
:1009B0007C01A3019201C501B40163D49B01AC0188
:1009C000C701B601A7D276D37093270160932601A1
:1009D00060912E0170912F01809130019091310131
:1009E000E0902601F09027012FED30EE4BE85DE31B
:1009F00048D44B015C01B701FF0C880B990B8DD3D8
:100A00009B01AC01C501B40185D254D37093270179
:100A10006093260160913A0270913B0280913C0202
:100A200090913D02209188023091890240918A0282
:100A300050918B026FD260938802709389028093E9
:100A40008A0290938B02809126019091270148970A
:100A5000ACF1609126017091270180900401909083
:100A60000501A0900601B0900701C0908802D090C7
:100A70008902E0908A02F0908B02072E000C880B0E
:100A8000990B4BD320E030E040EC51E442D2A50179
:100A90009401A8D29B01AC01C701B6013AD2609380
:100AA00088027093890280938A0290938B0288E176
:100AB00090E090932701809326013BC0809126010E
:100AC00090912701883E9F4FA4F560912601709177
:100AD00027018090040190900501A0900601B0903C
:100AE0000701C0908802D0908902E0908A02F090BD
:100AF0008B02072E000C880B990B0FD320E030E0FF
:100B000040EC51E407D2A50194016CD29B01AC01E9
:100B1000C701B601FED16093880270938902809369
:100B20008A0290938B0288EE9FEF90932701809327
:100B300026016091260170912701072E000C880B79
:100B4000990BEBD2C2DA80916E028F5F80936E02B6
:100B50008091280190912901019690932901809319
:100B60002801FF91EF91CF91BF91AF919F918F910C
:100B70007F916F915F914F913F912F91FF90EF90F7
:100B8000DF90CF90BF90AF909F908F907F906F90AD
:100B90005F904F900F900BBE0F900FBE0F901F9065
:100BA0001895CF93DF93CDB7DEB764970FB6F8945F
:100BB000DEBF0FBECDBF8EEF8C838B838A8389838C
:100BC00045D18BD193D14FD153D165D110928900AA
:100BD000109288001DBC1CBC60E070E0CB0175DA8F
:100BE00077D1A0DA83E882BF7894B12C0F2EF4E19C
:100BF0009F2EF02D0F2EF3E0AF2EF02D7E0185E11C
:100C0000E80EF11C0F2EF2E5CF2EF2E0DF2EF02DD4
:100C10006894772471F888248394B8C080918C02FA
:100C20008130E1F018F08230E1F1ABC0E0917F0259
:100C3000F0E0EA5CFE4F80818F3F69F480915102C1
:100C40008F5F8093510280915102843009F099C0E6
:100C500080928C0296C01092510293C0E091510292
:100C600081E08E0F80935102F0E0A0917F02B0E00E
:100C7000AA5CBE4F8C91EE5AFD4F80838091510249
:100C8000883009F07EC0F601958180911801981393
:100C900003C070928C0275C010928C0210925102A7
:100CA00070C0E091510281E08E0F80935102F0E01C
:100CB000A0917F02B0E0AA5CBE4F8C91EE5AFD4F2E
:100CC0008083E0917F02F0E0EA5CFE4F8081B80E05
:100CD000F601948180915102981344C08781B81223
:100CE0003BC086818230C1F56085718582859385A0
:100CF00014D220E030E04AE754E474D160932A0132
:100D000070932B0180932C0190932D01F601648543
:100D100075858685978501D220E030E04AE754E466
:100D200061D16093210170932201809323019093FC
:100D30002401F6016089718982899389EED120E0CE
:100D400030E04AE754E44ED16093190170931A01E0
:100D500080931B0190931C0110928C0210925102FF
:100D6000B12C0FC0F601948180915102981720F0A8
:100D700080915102853128F010928C02109251021C
:100D8000B12C80917F028F5F80937F0290917F02D0
:100D900080914C02981342CF8091280190912901B3
:100DA0004497A4F310922901109228018091180110
:100DB0008E839D82AF82188660918002709181023D
:100DC000809182029091830220E030E04AE754E46F
:100DD00058D270D169877A878B879C8760912E0162
:100DE00070912F01809130019091310120E030E02D
:100DF0004AE754E446D25ED16D877E878F87988B11
:100E000060914402709145028091460290914702A0
:100E100020E030E04AE754E434D24CD1698B7A8B3D
:100E20008B8B9C8BFE01399681919885890F8887E1
:100E3000EE15FF05C9F78E010F5F1F4FF801819175
:100E40008F0159D00E151F05C9F7A0CF8FEF8ABBB0
:100E500084BB88E081BB87E687BB8AE182B91BBA85
:100E600087E088BB089584E083BF81E087BF089551
:100E700082EE8FBD81E18EBD8FE891E097BD86BD8A
:100E800010927900109278001BBC1ABC19BC18BCD7
:100E90001DBC1CBC089582EB80938B0081E1809384
:100EA0008A008FE891E090938100809380001092F7
:100EB0008300109282001092870010928600109298
:100EC0008500109284001092890010928800089585
:100ED00080E487B986E886B908951BB888E98AB99D
:100EE00086E08093950087E689B9089580E58DB9FD
:100EF00081E08EB908955D9BFECF8CB908958FB9BE
:100F0000779BFECF8FB108951FB8779BFECF8FB12F
:100F100008955058BB27AA270ED075C166D130F06E
:100F20006BD120F031F49F3F11F41EF45BC10EF43D
:100F3000E095E7FB51C1E92F77D180F3BA1762073B
:100F400073078407950718F071F49EF58FC10EF4AE
:100F5000E0950B2EBA2FA02D0B01B90190010C01C9
:100F6000CA01A0011124FF27591B99F0593F50F4E1
:100F7000503E68F11A16F040A22F232F342F442739
:100F8000585FF3CF469537952795A795F040539531
:100F9000C9F77EF41F16BA0B620B730B840BBAF001
:100FA0009150A1F0FF0FBB1F661F771F881FC2F76C
:100FB0000EC0BA0F621F731F841F48F48795779580
:100FC0006795B795F7959E3F08F0B3CF9395880F37
:100FD00008F09927EE0F979587950895D9D008F4D2
:100FE00081E008950CD00FC107D140F0FED030F061
:100FF00021F45F3F19F0F0C0511139C1F3C014D191
:1010000098F39923C9F35523B1F3951B550BBB27CF
:10101000AA2762177307840738F09F5F5F4F220F7C
:10102000331F441FAA1FA9F333D00E2E3AF0E0E875
:1010300030D091505040E695001CCAF729D0FE2FC1
:1010400027D0660F771F881FBB1F26173707480753
:10105000AB07B0E809F0BB0B802DBF01FF27935809
:101060005F4F2AF09E3F510568F0B6C000C15F3F58
:10107000ECF3983EDCF3869577956795B795F795F1
:101080009F5FC9F7880F911D9695879597F90895E9
:10109000E1E0660F771F881FBB1F62177307840785
:1010A000BA0720F0621B730B840BBA0BEE1F88F794
:1010B000E095089504D06894B111D9C00895BCD0CA
:1010C00088F09F5790F0B92F9927B751A0F0D1F031
:1010D000660F771F881F991F1AF0BA95C9F712C0BB
:1010E000B13081F0C3D0B1E00895C0C0672F782F30
:1010F0008827B85F39F0B93FCCF386957795679527
:10110000B395D9F73EF490958095709561957F4F92
:101110008F4F9F4F0895E89409C097FB3EF4909538
:101120008095709561957F4F8F4F9F4F9923A9F0C0
:10113000F92F96E9BB279395F6958795779567954F
:10114000B795F111F8CFFAF4BB0F11F460FF1BC093
:101150006F5F7F4F8F4F9F4F16C0882311F096E926
:1011600011C0772321F09EE8872F762F05C06623D4
:1011700071F096E8862F70E060E02AF09A95660F8D
:10118000771F881FDAF7880F9695879597F9089546
:10119000990F0008550FAA0BE0E8FEEF1616170688
:1011A000E807F907C0F012161306E407F50798F0F0
:1011B000621B730B840B950B39F40A2661F0232B09
:1011C000242B252B21F408950A2609F4A140A69585
:1011D0008FEF811D811D089597F99F6780E870E06A
:1011E00060E008959FEF80EC089500240A9416169D
:1011F000170618060906089500240A941216130605
:10120000140605060895092E0394000C11F4882392
:1012100052F0BB0F40F4BF2B11F460FF04C06F5FAE
:101220007F4F8F4F9F4F089557FD9058440F551F84
:1012300059F05F3F71F04795880F97FB991F61F058
:101240009F3F79F087950895121613061406551FCF
:10125000F2CF4695F1DF08C0161617061806991F3B
:10126000F1CF86957105610508940895E894BB2730
:1012700066277727CB0197F908958ADF08F48FEF67
:1012800008950BD0C0CFB1DF28F0B6DF18F095235A
:1012900009F0A2CFA7CF1124EACFC6DFA0F3959F14
:1012A000D1F3950F50E0551F629FF001729FBB274D
:1012B000F00DB11D639FAA27F00DB11DAA1F649FF9
:1012C0006627B00DA11D661F829F2227B00DA11DAC
:1012D000621F739FB00DA11D621F839FA00D611D32
:1012E000221F749F3327A00D611D231F849F600D53
:1012F000211D822F762F6A2F11249F5750408AF08C
:10130000E1F088234AF0EE0FFF1FBB1F661F771F17
:10131000881F91505040A9F79E3F510570F05CCF57
:10132000A6CF5F3FECF3983EDCF386957795679503
:10133000B795F795E7959F5FC1F7FE2B880F911D35
:0C1340009695879597F90895F894FFCFD3
:10134C00333B0A45B8AF533F7B149742E17A1440C4
:10135C00CDCCCC3DE17A7841010000803FCDCC4C26
:06136C003D0000803F007F
:00000001FF
